:1000000002061AE508240CF582E43400F583E005C5
:10001000082290000930070390000CE475F00112EB
:10002000052F02049F2000E97F2ED2008018EF5494
:100030000F2490D43440D4FF30040BEF24BFB41A03
:100040000050032461FFE50960021509050CE50C69
:100050007002050B30070E900009E475F0011205DF
:100060002FEF0204E502084D7403D2078003E4C2B7
:1000700007F508900009120546E4F509F50BF50CA3
:10008000E50960077F2012004680F5750AFFC2016E
:10009000C200C202C203C205C206C208120012FF99
:1000A000700D3007057F00120057AF0CAE0B22B465
:1000B000255FC2D5C204120012FF24D0B40A00503A
:1000C0001A75F00A780930D50508B6FF0106C6A4EE
:1000D00026F620D5047002D20380D924CFB41A00AA
:1000E000EF5004C2E5D204020258D20180C6D20009
:1000F00080C0D20280BCD2D580BAD20580B47F2025
:100100001200462002077401B5090040F1120003F5
:10011000FF120046020080D208D20680951200032A
:10012000FB120003FA120003F94A4B700679297A90
:10013000037BFF20022EE509602A7E008E827583F4
:10014000001204B860060EEE650A70F0C2D5EBC06E
:10015000E0EAC0E0E9C0E0EE12029FD0E0F9D0E0B2
:10016000FAD0E0FB12049FFF60AAEBC0E0EAC0E017
:10017000E9C0E0120046D0E02401F9D0E03400FAF2
:10018000D0E0FBE50A0460DCD50AD980877BFF7AE2
:1001900002799BD202809C791080027908C206C243
:1001A000088008D2D5790A8004790AC2D5E50A0404
:1001B0007002F50AE4FAFDFEFF120003FC7B082042
:1001C0000113120003FD7B1030000A120003FE121F
:1001D0000003FF7B20EC3382D592D55013C3E4306B
:1001E00000069FFFE49EFEE42001039DFDE49CFCCD
:1001F000E4CBF8C201EC700CCFCECDCCE824F8F8FB
:1002000070F38017C3EF33FFEE33FEED33FDEC33B5
:10021000FCEB33FB994002FB0FD8E9EB300105F80A
:10022000D0E0C448B201C0E00AEC4D4E4F78207BCC
:100230000070C2EAB50A0040BCC0E01202A1D0F0D2
:10024000D0E0200104C4C0E0C4B201C0F012002F0D
:10025000D0F0D5F0EB02008012054F011D5301973D
:100260005800EE4C00EA42019B4F01A34401A34910
:1002700001034301A955018D46018D45018D4703B9
:10028000495000F22D00F62E01192B00FA23011718
:100290002003322A00B248000001113F3F3F00799D
:1002A0000AA2D5200314300509B910020404B908C4
:1002B0000104A2D52006025001042002689202B572
:1002C00009005034C0E07F203003197F30A2027251
:1002D000067205500F1202F8C202C206C205C20819
:1002E0007F30800F300503E9C0E01200463005037F
:1002F000D0E0F9D0E0B509CC3005177F30B9100C4B
:100300001200467F583004077F788003B908031233
:1003100000463002057F2D0200467F202008F87F2E
:100320002B2006F322920280CF286E756C6C290078
:10033000D2011200033001F8C201780930D501085A
:10034000F60200B22D504349581200032403B405AD
:10035000004001E490034493120037743A120037CE
:10036000D203750904020197900012EDF090000F7E
:10037000EBF0A3EAF0A3E9F012049FFF900013E072
:10038000FD12075A90000FE0FBA3E0FAA3E0F990FA
:1003900000021204B8FF900012E0FEC45401FD12E6
:1003A000075A90000FE0FBA3E0FAA3E0F9900003E6
:1003B0001204B8FF900012E0C4540FFEC31354019E
:1003C000FD12075A90000FE0FBA3E0FAA3E0F990BA
:1003D00000041204B8FF900012E0C4540FFE13137F
:1003E0005401FD12075A90000FE0FBA3E0FAA3E0CE
:1003F000F99000051204B8FF900012E0C4540FFEFB
:100400001313135401FD12075A90000FE0FBA3E0F1
:10041000FAA3E0F912070390000FE0FBA3E0FAA3B0
:10042000E0F99000021204B8FF900012E05401FDC0
:1004300012075A90000FE0FBA3E0FAA3E0F9900046
:10044000031204B8FF900012E0FEC3135401FD1222
:10045000075A90000FE0FBA3E0FAA3E0F990000434
:100460001204B8FF900012E0FE13135401FD1207AE
:100470005A90000FE0FBA3E0FAA3E0F99000051208
:1004800004B8FF900012E0FE1313135401FD12078D
:100490005A90000FE0FBA3E0FAA3E0F9020703BBC8
:1004A000010689828A83E0225002E722BBFE02E332
:1004B0002289828A83E49322BB010CE58229F5829A
:1004C000E5833AF583E0225006E92582F8E622BB6F
:1004D000FE06E92582F8E222E58229F582E5833AE3
:1004E000F583E49322BB010689828A83F0225002BD
:1004F000F722BBFE01F322F8BB010DE58229F5824C
:10050000E5833AF583E8F0225006E92582C8F62211
:10051000BBFE05E92582C8F222C5F0F8A3E028F069
:10052000C5F0F8E582158270021583E038F022F8F4
:10053000E0FBA3A3E0F925F0F0E582158270021537
:1005400083E0FA38F022EBF0A3EAF0A3E9F022D03E
:1005500083D082F8E4937012740193700DA3A39377
:10056000F8740193F5828883E4737402936860EFF2
:10057000A3A3A380DF900009EBF0A3EAF0A3E9F0C6
:10058000900009E0FBA3E0FAA3E0F99000067408EC
:100590001204F7C003C002C001900009E0FBA3E011
:1005A000FAA3E0F99000061204B84420FDE490009C
:1005B00013F0D001D002D003120368900009E0FBD1
:1005C000A3E0FAA3E0F990000774041204F71207FD
:1005D0009B900009E0FBA3E0FAA3E0F912089990D0
:1005E0000009E0FBA3E0FAA3E0F99000087402120E
:1005F00004F7C003C002C001900009E0FBA3E0FAC9
:10060000A3E0F99000081204B84404FDE49000133C
:10061000F0D001D002D003020368787FE4F6D8FD61
:100620007581210206610206A6E493A3F8E493A370
:100630004003F68001F208DFF48029E493A3F85424
:1006400007240CC8C333C4540F4420C8834004F4A7
:1006500056800146F6DFE4800B01020408102040BA
:1006600080900874E47E019360BCA3FF543F30E5A2
:1006700009541FFEE493A360010ECF54C025E0602F
:10068000A840B8E493A3FAE493A3F8E493A3C8C5FD
:1006900082C8CAC583CAF0A3C8C582C8CAC583CAEE
:1006A000DFE9DEE780BE7B017A00790090000D74FF
:1006B00014F0A314F0A314F0A314F0A314F07D1508
:1006C0001208177B017A00790012057590000C74EE
:1006D000FFF0A37408F0A374B6F0A3E4F0A37414BD
:1006E000F07B017A00793112006890000C7401F0FF
:1006F000A37400F0A37431F07B017A007900120733
:10070000DA80FE900014EBF0A3EAF0A3E9F0900089
:1007100014E0FBA3E0FAA3E0F99000011204B8FF93
:10072000E4FD12075A900014E0FBA3E0FAA3E0F9FD
:100730009000011204B8FF7D0112075A900014E0E6
:10074000FBA3E0FAA3E0F99000011204B8FFE4FD76
:1007500012075A7F647E000208AAEF5407FEF8745D
:1007600001088002C333D8FCFEEF131313541FFF9C
:10077000700CED6004EE428022EEF4528022EF64B1
:1007800001700CED6004EE429022EEF4529022EDE6
:100790006004EE42A022EEF452A02290000CEBF096
:1007A000A3EAF0A3E9F090000CE0FBA3E0FAA3E0D9
:1007B0002407F9E43AFA12049F44041204E5900075
:1007C0000CE0FBA3E0FAA3E0F99000071204B844A0
:1007D00008FDE4900013F0020368900009EBF0A319
:1007E000EAF0A3E9F090000CE0FBA3E0FAA3E0F943
:1007F00012049FFD60209000137401F0900009E046
:10080000FBA3E0FAA3E0F912036890000DE475F091
:100810000112051980CF22ED1204E590000DE09041
:1008200000011204F790000EE09000021204F7900D
:10083000000FE09000031204F7900010E090000415
:100840001204F7900011E09000050204F7EFB40ADB
:1008500007740D120858740A309811A899B8130C2F
:10086000C2983098FDA899C298B811F63099FDC287
:1008700099F599226020003100000000000000007E
:100880000000000000000000000000000000000068
:10089000000000000000000000E4900013F07D0163
:1008A0001203687FD07E070208AAEF4E6007EF1F91
:0908B00070F81E80F52225640099
:00000001FF
