:10000000020273BB010689828A83E0225002E72242
:10001000BBFE02E32289828A83E49322BB010CE5C2
:100020008229F582E5833AF583E0225006E92582AC
:10003000F8E622BBFE06E92582F8E222E58229F5F0
:1000400082E5833AF583E49322BB010689828A83A1
:10005000F0225002F722BBFE01F322F8BB010DE5AE
:100060008229F582E5833AF583E8F0225006E925F6
:1000700082C8F622BBFE05E92582C8F222C5F0F847
:10008000A3E028F0C5F0F8E582158270021583E040
:1000900038F022BB0110E58229F582E5833AF58329
:1000A000E0F5F0A3E0225009E92582F886F008E6A1
:1000B00022BBFE0AE92582F8E2F5F008E222E58398
:1000C0002AF583E993F5F0A3E99322BB010DC582DC
:1000D00029C582C5833AC58302007D5011C5822996
:1000E000F808E5F026F618F5F0E58236F622BBFEB4
:1000F00011C58229F808E225F0F5F0F218E2358200
:10010000F222F8E58229F582E5832AF583740193CA
:1001100025F0F5F0E4933822F8BB0111E58229F5CA
:1001200082E5833AF583E8F0E5F0A3F0225009E98F
:100130002582C8F608A6F022BBFE09E92582C8F28E
:10014000E5F008F222EB9FF5F0EA9E42F0E99D42CD
:10015000F0EC6480C864809845F022E0FBA3E0FAEC
:10016000A3E0F922EBF0A3EAF0A3E9F022FDE4908A
:10017000003BF090003AEDF090003712016412005D
:1001800003FF90003BE0FD12043F90003712015B3B
:1001900090000212001CFF90003AE0FEC45401FDE2
:1001A00012043F90003712015B90000312001CFF05
:1001B00090003AE0C4540FFEC3135401FD12043FF3
:1001C00090003712015B90000412001CFF90003A6F
:1001D000E0C4540FFE13135401FD12043F90003786
:1001E00012015B90000512001CFF90003AE0C4541D
:1001F0000FFE1313135401FD12043F900037120138
:100200005B1203FC90003712015B90000212001C8D
:10021000FF90003AE05401FD12043F9000371201B4
:100220005B90000312001CFF90003AE0FEC31354E1
:1002300001FD12043F90003712015B900004120090
:100240001CFF90003AE0FE13135401FD12043F908E
:10025000003712015B90000512001CFF90003AE08D
:10026000FE1313135401FD12043F90003712015B7B
:100270000203FC787FE4F6D8FD7581070202BA021A
:100280000381E493A3F8E493A34003F68001F2080A
:10029000DFF48029E493A3F85407240CC8C333C4C3
:1002A000540F4420C8834004F456800146F6DFE42E
:1002B000800B010204081020408090052CE47E0190
:1002C0009360BCA3FF543F30E509541FFEE493A3A1
:1002D00060010ECF54C025E060A840B8E493A3FAB3
:1002E000E493A3F8E493A3C8C582C8CAC583CAF03F
:1002F000A3C8C582C8CAC583CADFE9DEE780BE904D
:10030000003112016490003112015B900006740804
:1003100012005BC003C002C00190003112015B906B
:10032000000612001C4420FDE490003BF0D001D0F8
:1003300002D00312017390003112015B9000077428
:100340000412005B1204BE90003112015B1205B46E
:1003500090003112015B900008740212005BC00330
:10036000C002C00190003112015B90000812001C15
:100370004404FDE490003BF0D001D002D003020120
:10038000737B017A0079289000357414F0A314F07F
:10039000A314F0A314F0A314F07D151204F67B014E
:1003A0007A0079281202FF7F08120480EF6401703E
:1003B000257B017A007928900035F0FD12058A7BB3
:1003C000FF7A0579D19000341201647B017A0079BB
:1003D0002812055C80D17B017A007928E4900035F1
:1003E000F0FD12058A7BFF7A0579D6900034120160
:1003F000647B017A00792812055C80AB90003C1286
:10040000016490003C12015B90000112001CFFE4AB
:10041000FD12043F90003C12015B90000112001C91
:10042000FF7D0112043F90003C12015B900001121D
:10043000001CFFE4FD12043F7F647E000205C5EF4F
:100440005407FEF87401088002C333D8FCFEEF1392
:100450001313541FFF700CED6004EE428022EEF483
:10046000528022EF6401700CED6004EE429022EEA7
:10047000F4529022ED6004EE42A022EEF452A0224B
:10048000EF5407FEF87401088002C333D8FCFEEF76
:10049000131313541FFD7C00700AE5805E7F00601B
:1004A0001C7F0122ED64014C700AE5905E7F0060C4
:1004B0000C7F0122E5A05E7F0060027F0122900098
:1004C0003412016490003412015BE92407F9E43A24
:1004D000FA120003440412004990003412015B90A8
:1004E000000712001C4408FDE490003BF09000342B
:1004F00012015B020173ED120049900035E090009B
:100500000112005B900036E090000212005B900048
:1005100037E090000312005B900038E09000041276
:10052000005B900039E090000502005B602000084D
:1005300000000000000000000000000000000000BB
:1005400000000000000000000000000000000000AB
:10055000480000000A1F1F1F0E0400009000311207
:10056000016490003412015B120003FD601B9000D7
:100570003B7401F090003112015B12017390003561
:10058000E475F00112007D80D922900031120164DF
:10059000900034EDF0A3E0900031600B12015B900D
:1005A0000034E02440800712015B900034E0448076
:1005B00012016D22E490003BF07D011201737FD0A7
:1005C0007E070205C5EF4E6007EF1F70F81E80F52D
:0B05D0002248494748004C4F572000CC
:00000001FF
