:100000000200A5BB010689828A83E0225002E72212
:10001000BBFE02E32289828A83E49322BB010CE5C2
:100020008229F582E5833AF583E0225006E92582AC
:10003000F8E622BBFE06E92582F8E222E58229F5F0
:1000400082E5833AF583E49322BB010689828A83A1
:10005000F0225002F722BBFE01F322F8BB010DE5AE
:100060008229F582E5833AF583E8F0225006E925F6
:1000700082C8F622BBFE05E92582C8F222C5F0F847
:10008000A3E028F0C5F0F8E582158270021583E040
:1000900038F022E0FBA3E0FAA3E0F922EBF0A3EAB8
:1000A000F0A3E9F022787FE4F6D8FD75810702001D
:0300B000B180FE1E
:00000001FF
