:1000000002007DEF5407FEF87401088002C333D864
:10001000FCFEEF131313541FFF700CED6004EE424F
:100020008022EEF4528022EF6401700CED6004EE49
:10003000429022EEF4529022ED6004EE42A022EEB5
:10004000F452A0227D017F091200037F647E00121A
:100050000062E4FD7F091200037F647E00120062EB
:1000600080E2EF4E6016E4FDEDC3946E74809480E0
:1000700050030D80F3EF1F70E91E80E622787FE4C5
:09008000F6D8FD75810702004469
:00000001FF
