:100000000206B0E5082412F582E43400F583E00529
:10001000082290000F300703900012E475F00112DF
:1000200004D20203682000E97F2ED2008018EF542A
:100030000F2490D43440D4FF30040BEF24BFB41A03
:100040000050032461FFE50960021509050CE50C69
:100050007002050B30070E90000FE475F0011204DA
:10006000D2EF0203AE020CD27403D2078003E4C2C3
:1000700007F50890000F1204C9E4F509F50BF50C1B
:10008000E50960077F2012004680F5750AFFC2016E
:10009000C200C202C203C205C206C208120012FF99
:1000A000700D3007057F00120057AF0CAE0B22B465
:1000B000255FC2D5C204120012FF24D0B40A00503A
:1000C0001A75F00A780930D50508B6FF0106C6A4EE
:1000D00026F620D5047002D20380D924CFB41A00AA
:1000E000EF5004C2E5D204020258D20180C6D20009
:1000F00080C0D20280BCD2D580BAD20580B47F2025
:100100001200462002077401B5090040F1120003F5
:10011000FF120046020080D208D20680951200032A
:10012000FB120003FA120003F94A4B700679297A90
:10013000037BFF20022EE509602A7E008E827583F4
:100140000012038160060EEE650A70F0C2D5EBC0A6
:10015000E0EAC0E0E9C0E0EE12029FD0E0F9D0E0B2
:10016000FAD0E0FB120368FF60AAEBC0E0EAC0E04F
:10017000E9C0E0120046D0E02401F9D0E03400FAF2
:10018000D0E0FBE50A0460DCD50AD980877BFF7AE2
:1001900002799BD202809C791080027908C206C243
:1001A000088008D2D5790A8004790AC2D5E50A0404
:1001B0007002F50AE4FAFDFEFF120003FC7B082042
:1001C0000113120003FD7B1030000A120003FE121F
:1001D0000003FF7B20EC3382D592D55013C3E4306B
:1001E00000069FFFE49EFEE42001039DFDE49CFCCD
:1001F000E4CBF8C201EC700CCFCECDCCE824F8F8FB
:1002000070F38017C3EF33FFEE33FEED33FDEC33B5
:10021000FCEB33FB994002FB0FD8E9EB300105F80A
:10022000D0E0C448B201C0E00AEC4D4E4F78207BCC
:100230000070C2EAB50A0040BCC0E01202A1D0F0D2
:10024000D0E0200104C4C0E0C4B201C0F012002F0D
:10025000D0F0D5F0EB0200801204E9011D530197A4
:100260005800EE4C00EA42019B4F01A34401A34910
:1002700001034301A955018D46018D45018D4703B9
:10028000495000F22D00F62E01192B00FA23011718
:100290002003322A00B248000001113F3F3F00799D
:1002A0000AA2D5200314300509B910020404B908C4
:1002B0000104A2D52006025001042002689202B572
:1002C00009005034C0E07F203003197F30A2027251
:1002D000067205500F1202F8C202C206C205C20819
:1002E0007F30800F300503E9C0E01200463005037F
:1002F000D0E0F9D0E0B509CC3005177F30B9100C4B
:100300001200467F583004077F788003B908031233
:1003100000463002057F2D0200467F202008F87F2E
:100320002B2006F322920280CF286E756C6C290078
:10033000D2011200033001F8C201780930D501085A
:10034000F60200B22D504349581200032403B405AD
:10035000004001E490034493120037743A120037CE
:10036000D203750904020197BB010689828A83E0E2
:10037000225002E722BBFE02E32289828A83E493B1
:1003800022BB010CE58229F582E5833AF583E02260
:100390005006E92582F8E622BBFE06E92582F8E24E
:1003A00022E58229F582E5833AF583E49322BB01B5
:1003B0000689828A83F0225002F722BBFE01F322D3
:1003C000F8BB010DE58229F582E5833AF583E8F073
:1003D000225006E92582C8F622BBFE05E92582C81F
:1003E000F222C5F0F8A3E028F0C5F0F8E582158206
:1003F00070021583E038F022BB0110E58229F582F6
:10040000E5833AF583E0F5F0A3E0225009E925827F
:10041000F886F008E622BBFE0AE92582F8E2F5F04C
:1004200008E222E5832AF583E993F5F0A3E9932214
:10043000BB010DC58229C582C5833AC5830203E28B
:100440005011C58229F808E5F026F618F5F0E58286
:1004500036F622BBFE11C58229F808E225F0F5F038
:10046000F218E23582F222F8E58229F582E5832A44
:10047000F58374019325F0F5F0E4933822F8BB017D
:1004800011E58229F582E5833AF583E8F0E5F0A3EA
:10049000F0225009E92582C8F608A6F022BBFE0921
:1004A000E92582C8F2E5F008F222EB9FF5F0EA9E1A
:1004B00042F0E99D42F0EC6480C864809845F022E7
:1004C000E0FBA3E0FAA3E0F922EBF0A3EAF0A3E952
:1004D000F022F8E0FBA3A3E0F925F0F0E582158215
:1004E00070021583E0FA38F022D083D082F8E493CA
:1004F0007012740193700DA3A393F8740193F582A5
:100500008883E4737402936860EFA3A3A380DFFD84
:10051000E4900019F0900018EDF09000151204C955
:10052000120368FF900019E0FD120B4090001512B5
:1005300004C0900002120381FF900018E0FEC45432
:1005400001FD120B409000151204C090000312032D
:1005500081FF900018E0C4540FFEC3135401FD1234
:100560000B409000151204C0900004120381FF900C
:100570000018E0C4540FFE13135401FD120B4090F9
:1005800000151204C0900005120381FF900018E0CE
:10059000C4540FFE1313135401FD120B40900015A9
:1005A0001204C0120AFD9000151204C0900002123D
:1005B0000381FF900018E05401FD120B40900015DC
:1005C0001204C0900003120381FF900018E0FEC3E4
:1005D000135401FD120B409000151204C09000044A
:1005E000120381FF900018E0FE13135401FD120B5B
:1005F000409000151204C0900005120381FF900086
:1006000018E0FE1313135401FD120B409000151255
:1006100004C0020AFD9000141204C99000141204D0
:10062000C09000021203816055120368FF7D011221
:100630000B409000141204C0900001120381FF7D52
:1006400001120B409000141204C0120D5F900014B0
:100650001204C0900001120381FF120B81EF700C95
:100660009000141204C0120C84EF60E19000141288
:1006700004C0120368FF120B81EF7002FF2290008A
:10068000141204C0120368FFE4FD120B4090001422
:100690001204C0900001120381FFE4FD120B409090
:1006A00000141204C090000274011203C07F0122E2
:1006B000787FE4F6D8FD7581210206F7020842E44E
:1006C00093A3F8E493A34003F68001F208DFF480DB
:1006D00029E493A3F85407240CC8C333C4540F442B
:1006E00020C8834004F456800146F6DFE4800B0105
:1006F00002040810204080900CF9E47E019360BC55
:10070000A3FF543F30E509541FFEE493A360010E9C
:10071000CF54C025E060A840B8E493A3FAE493A3C3
:10072000F8E493A3C8C582C8CAC583CAF0A3C8C5E4
:1007300082C8CAC583CADFE9DEE780BE900012ED39
:10074000F090000F1204C912061590000F1204C099
:10075000900005120381FDE4900018F090000F1244
:1007600004C0120D4490000F1204C0900012E0FD6E
:10077000120D6890000F1204C012094390000F126E
:1007800004C012061590000F1204C0900005120359
:1007900081FD9000187401F090000F1204C0120D3A
:1007A0004490000F1204C0E4FD120D6B900013EF93
:1007B000F090000F1204C0120943900013E0FF22D2
:1007C00090000F1204C990000F1204C0900006742C
:1007D000081203C0C003C002C00190000F1204C081
:1007E0009000061203814420FDE4900019F0D0012E
:1007F000D002D00312051590000F1204C09000071C
:1008000074041203C0120BBF90000F1204C0120D2B
:100810003390000F1204C090000874021203C0C08D
:1008200003C002C00190000F1204C0900008120320
:10083000814404FDE4900019F0D001D002D00302FD
:1008400005157B017A0079009000137414F0A3144D
:10085000F0A314F0A314F0A314F07D15120BF77B92
:10086000017A0079001207C07B017A0079099000B3
:10087000137409F0A37450F07D0A120C5B7B017AAB
:10088000007909120D6E7B017A0079097D0A120741
:100890003C7BFF7A0D79719000121204C99000150B
:1008A000E4F0A3EFF07B017A0079371200687B0156
:1008B0007A0079379000121204C97A007900120C7C
:1008C0002D80FE90001FEBF0AC05A907E4FBEBC305
:1008D000940874809480506A90001FE06401702432
:1008E000AF01C007FE04A803088005C333CE33CE92
:1008F000D8F9FF900020E0F582EF55827D0060027C
:100900007D018029AF01C007C374079BFF7E00747F
:1009100001A807088005C333CE33CED8F9FF900075
:1009200020E0F582EF55827D0060027D01D0071244
:100930000B40AF047D01120B40AF041D120B400BA6
:10094000808C229000141204C99000141204C0126A
:100950000368FFE4FD120B409000141204C09000E5
:1009600001120381FF7D01120B409000141204C09C
:10097000120D5F9000141204C0900001120381FF59
:10098000120B81EF700C9000141204C0120C84EF53
:1009900060E19000141204C0120368FF7D01120B85
:1009A000409000141204C0120368FF120B81EF7014
:1009B00002FF229000141204C0900002E41203C04F
:1009C0007F0122AE059000191204C9120368FF903E
:1009D0000001120381FD900020EEF0E4FB1208C339
:1009E0009000191204C0120368FF7D01120B4090A1
:1009F00000191204C0900001120381FF7D01120B47
:100A0000409000191204C0120368FF120B8190007D
:100A10001CEFF09000191204C0900001120381FF36
:100A2000E4FD120B4090001CE07F0070027F012269
:100A3000900017EDF09000141204C9120368FF90A3
:100A40000001120381FDE4FB120A97900018EFF0F9
:100A5000900017E0FDFF3395E0FEEF64014E70312A
:100A60009000141204C0120368FF120B409000148F
:100A70001204C0900001120381FF7D01120B40900F
:100A800000141204C0900001120381FFE4FD120B58
:100A900040900018E0FF22900019EFF0A3EDF0A3C2
:100AA000EBF0E4F9FBEBC3940874809480504B9016
:100AB000001AE0FF7D01120B40A3E0640170169064
:100AC0000019E0FF120B81A803EF088002C333D89E
:100AD000FC49F98018900019E0FF120B81C37407DC
:100AE0009BFEF8EF088002C333D8FC49F990001A46
:100AF000E0FFE4FD120B400B80ABAF012290001A27
:100B00001204C990001A1204C0900001120381FF60
:100B1000E4FD120B4090001A1204C0900001120371
:100B200081FF7D01120B4090001A1204C090000159
:100B3000120381FFE4FD120B407F647E00020D531F
:100B4000EF5407FEF87401088002C333D8FCFEEFAF
:100B5000131313541FFF700CED6004EE428022EE5D
:100B6000F4528022EF6401700CED6004EE4290229A
:100B7000EEF4529022ED6004EE42A022EEF452A078
:100B800022EF5407FEF87401088002C333D8FCFE3C
:100B9000EF131313541FFD7C00700AE5805E7F0085
:100BA000601C7F0122ED64014C700AE5905E7F00BD
:100BB000600C7F0122E5A05E7F0060027F01229031
:100BC00000121204C99000121204C0E92407F9E4CB
:100BD0003AFA12036844041203AE9000121204C0E1
:100BE0009000071203814408FDE4900019F0900082
:100BF000121204C0020515ED1203AE900013E0902E
:100C000000011203C0900014E09000021203C09093
:100C10000015E09000031203C0900016E09000045D
:100C20001203C0900017E09000050203C090000F6F
:100C30001204C99000121204C0120368FD601B90D8
:100C400000197401F090000F1204C01205159000F5
:100C500013E475F0011203E280D92290000F120410
:100C6000C990000F1204C0900013E0900019F01218
:100C70000D1E900014E0FF90000F1204C0900005BC
:100C8000EF0203C0900003E475F0011204309000FD
:100C9000031203F8FFAEF0E4FCFD7BFF7AFFF9F8E6
:100CA000C31204AA7F0070027F012290000F120479
:100CB000C990000F1204C0120368FF7D01120B409F
:100CC00090000F1204C0900001120381FF7D010209
:100CD0000B40EFB40A07740D120CDD740A30981142
:100CE000A899B8130CC2983098FDA899C298B81169
:100CF000F63099FDC299F599226020003700000076
:100D000000000000000000000000000000000000E3
:100D10000000000000000000000000000000ED12D4
:100D200003AE900019E09000011203C0900002E4AD
:100D30000203C0E4900019F07D011205157FD07EFA
:100D400007020D53AF05EF25E0FF900018E04FFDBF
:100D50000209C3EF4E6007EF1F70F81E80F5229066
:100D60000003E4F5F002047D0209C3020A30020C1C
:040D7000AB2564004B
:00000001FF
