:1000000002074FE5082413F582E43400F583E00588
:100010000822900010300703900013E475F00112DD
:1000200004D20203682000E97F2ED2008018EF542A
:100030000F2490D43440D4FF30040BEF24BFB41A03
:100040000050032461FFE50960021509050CE50C69
:100050007002050B30070E900010E475F0011204D9
:10006000D2EF0203AE020D1A7403D2078003E4C27A
:1000700007F5089000101204C9E4F509F50BF50C1A
:10008000E50960077F2012004680F5750AFFC2016E
:10009000C200C202C203C205C206C208120012FF99
:1000A000700D3007057F00120057AF0CAE0B22B465
:1000B000255FC2D5C204120012FF24D0B40A00503A
:1000C0001A75F00A780930D50508B6FF0106C6A4EE
:1000D00026F620D5047002D20380D924CFB41A00AA
:1000E000EF5004C2E5D204020258D20180C6D20009
:1000F00080C0D20280BCD2D580BAD20580B47F2025
:100100001200462002077401B5090040F1120003F5
:10011000FF120046020080D208D20680951200032A
:10012000FB120003FA120003F94A4B700679297A90
:10013000037BFF20022EE509602A7E008E827583F4
:100140000012038160060EEE650A70F0C2D5EBC0A6
:10015000E0EAC0E0E9C0E0EE12029FD0E0F9D0E0B2
:10016000FAD0E0FB120368FF60AAEBC0E0EAC0E04F
:10017000E9C0E0120046D0E02401F9D0E03400FAF2
:10018000D0E0FBE50A0460DCD50AD980877BFF7AE2
:1001900002799BD202809C791080027908C206C243
:1001A000088008D2D5790A8004790AC2D5E50A0404
:1001B0007002F50AE4FAFDFEFF120003FC7B082042
:1001C0000113120003FD7B1030000A120003FE121F
:1001D0000003FF7B20EC3382D592D55013C3E4306B
:1001E00000069FFFE49EFEE42001039DFDE49CFCCD
:1001F000E4CBF8C201EC700CCFCECDCCE824F8F8FB
:1002000070F38017C3EF33FFEE33FEED33FDEC33B5
:10021000FCEB33FB994002FB0FD8E9EB300105F80A
:10022000D0E0C448B201C0E00AEC4D4E4F78207BCC
:100230000070C2EAB50A0040BCC0E01202A1D0F0D2
:10024000D0E0200104C4C0E0C4B201C0F012002F0D
:10025000D0F0D5F0EB0200801204E9011D530197A4
:100260005800EE4C00EA42019B4F01A34401A34910
:1002700001034301A955018D46018D45018D4703B9
:10028000495000F22D00F62E01192B00FA23011718
:100290002003322A00B248000001113F3F3F00799D
:1002A0000AA2D5200314300509B910020404B908C4
:1002B0000104A2D52006025001042002689202B572
:1002C00009005034C0E07F203003197F30A2027251
:1002D000067205500F1202F8C202C206C205C20819
:1002E0007F30800F300503E9C0E01200463005037F
:1002F000D0E0F9D0E0B509CC3005177F30B9100C4B
:100300001200467F583004077F788003B908031233
:1003100000463002057F2D0200467F202008F87F2E
:100320002B2006F322920280CF286E756C6C290078
:10033000D2011200033001F8C201780930D501085A
:10034000F60200B22D504349581200032403B405AD
:10035000004001E490034493120037743A120037CE
:10036000D203750904020197BB010689828A83E0E2
:10037000225002E722BBFE02E32289828A83E493B1
:1003800022BB010CE58229F582E5833AF583E02260
:100390005006E92582F8E622BBFE06E92582F8E24E
:1003A00022E58229F582E5833AF583E49322BB01B5
:1003B0000689828A83F0225002F722BBFE01F322D3
:1003C000F8BB010DE58229F582E5833AF583E8F073
:1003D000225006E92582C8F622BBFE05E92582C81F
:1003E000F222C5F0F8A3E028F0C5F0F8E582158206
:1003F00070021583E038F022BB0110E58229F582F6
:10040000E5833AF583E0F5F0A3E0225009E925827F
:10041000F886F008E622BBFE0AE92582F8E2F5F04C
:1004200008E222E5832AF583E993F5F0A3E9932214
:10043000BB010DC58229C582C5833AC5830203E28B
:100440005011C58229F808E5F026F618F5F0E58286
:1004500036F622BBFE11C58229F808E225F0F5F038
:10046000F218E23582F222F8E58229F582E5832A44
:10047000F58374019325F0F5F0E4933822F8BB017D
:1004800011E58229F582E5833AF583E8F0E5F0A3EA
:10049000F0225009E92582C8F608A6F022BBFE0921
:1004A000E92582C8F2E5F008F222EB9FF5F0EA9E1A
:1004B00042F0E99D42F0EC6480C864809845F022E7
:1004C000E0FBA3E0FAA3E0F922EBF0A3EAF0A3E952
:1004D000F022F8E0FBA3A3E0F925F0F0E582158215
:1004E00070021583E0FA38F022D083D082F8E493CA
:1004F0007012740193700DA3A393F8740193F582A5
:100500008883E4737402936860EFA3A3A380DFFD84
:10051000E490001AF0900019EDF09000161204C952
:10052000120368FF90001AE0FD120B5E9000161295
:1005300004C0900002120381FF900019E0FEC45431
:1005400001FD120B5E9000161204C090000312030E
:1005500081FF900019E0C4540FFEC3135401FD1233
:100560000B5E9000161204C0900004120381FF90ED
:100570000019E0C4540FFE13135401FD120B5E90DA
:1005800000161204C0900005120381FF900019E0CC
:10059000C4540FFE1313135401FD120B5E9000168A
:1005A0001204C0120B1B9000161204C0900002121D
:1005B0000381FF900019E05401FD120B5E900016BC
:1005C0001204C0900003120381FF900019E0FEC3E3
:1005D000135401FD120B5E9000161204C09000042B
:1005E000120381FF900019E0FE13135401FD120B5A
:1005F0005E9000161204C0900005120381FF900067
:1006000019E0FE1313135401FD120B5E9000161235
:1006100004C0020B1BE4900000F07B017A00790714
:100620009000147414F0A314F0A314F0A314F0A316
:1006300014F07D15120C157B017A007901900014DD
:100640007409F0A37450F07D0A120CA37B017A00A8
:100650007901120DB67B017A0079017D101207DB5A
:10066000900000EFF07B017A00790712085F7B01B0
:100670007A007907E4900014F0FD120C797BFF7A80
:100680000D79B99000131204C9900000E0FF9000AA
:1006900016E4F0A3EFF07B017A0079381200687B52
:1006A000017A0079389000131204C97A0079071290
:1006B0000C4B80FE9000151204C99000151204C066
:1006C0009000021203816055120368FF7D01120B36
:1006D0005E9000151204C0900001120381FF7D019D
:1006E000120B5E9000151204C0120DA79000151297
:1006F00004C0900001120381FF120B9FEF700C9059
:1007000000151204C0120CCCEF60E1900015120429
:10071000C0120368FF120B9FEF7002FF22900015BA
:100720001204C0120368FFE4FD120B5E9000151264
:1007300004C0900001120381FFE4FD120B5E9000E3
:10074000151204C090000274011203C07F012278C8
:100750007FE4F6D8FD758121020796020615E49321
:10076000A3F8E493A34003F68001F208DFF48029A4
:10077000E493A3F85407240CC8C333C4540F442093
:10078000C8834004F456800146F6DFE4800B010282
:10079000040810204080900D41E47E019360BCA3CA
:1007A000FF543F30E509541FFEE493A360010ECFD0
:1007B00054C025E060A840B8E493A3FAE493A3F8FA
:1007C000E493A3C8C582C8CAC583CAF0A3C8C582BA
:1007D000C8CAC583CADFE9DEE780BE900013EDF02A
:1007E0009000101204C91206B49000101204C090B8
:1007F0000005120381FDE4900019F090001012042E
:10080000C0120D8C9000101204C0900013E0FD1275
:100810000DB09000101204C0120961900010120473
:10082000C01206B49000101204C09000051203819B
:10083000FD9000197401F09000101204C0120D8C8C
:100840009000101204C0E4FD120DB3900014EFF0FC
:100850009000101204C0120961900014E0FF229071
:1008600000101204C99000101204C0900006740811
:100870001203C0C003C002C0019000101204C09057
:1008800000061203814420FDE490001AF0D001D04C
:1008900002D0031205159000101204C090000774D6
:1008A000041203C0120BDD9000101204C0120D7B65
:1008B0009000101204C090000874021203C0C0031C
:1008C000C002C0019000101204C090000812038101
:1008D0004404FDE490001AF0D001D002D0030205D8
:1008E00015900020EBF0AC05A907E4FBEBC39408DE
:1008F00074809480506A900020E064017024AF01FD
:10090000C007FE04A803088005C333CE33CED8F950
:10091000FF900021E0F582EF55827D0060027D01AD
:100920008029AF01C007C374079BFF7E007401A834
:1009300007088005C333CE33CED8F9FF900021E0FD
:10094000F582EF55827D0060027D01D007120B5EBB
:10095000AF047D01120B5EAF041D120B5E0B808C89
:10096000229000151204C99000151204C0120368E9
:10097000FFE4FD120B5E9000151204C090000112FE
:100980000381FF7D01120B5E9000151204C0120D51
:10099000A79000151204C0900001120381FF120BF2
:1009A0009FEF700C9000151204C0120CCCEF60E1A8
:1009B0009000151204C0120368FF7D01120B5E90B7
:1009C00000151204C0120368FF120B9FEF7002FFA4
:1009D000229000151204C0900002E41203C07F01AF
:1009E00022AE0590001A1204C9120368FF9000019C
:1009F000120381FD900021EEF0E4FB1208E190006B
:100A00001A1204C0120368FF7D01120B5E90001AD7
:100A10001204C0900001120381FF7D01120B5E9051
:100A2000001A1204C0120368FF120B9F90001DEF02
:100A3000F090001A1204C0900001120381FFE4FD3F
:100A4000120B5E90001DE07F0070027F012290007B
:100A500018EDF09000151204C9120368FF90000110
:100A6000120381FDE4FB120AB5900019EFF090002B
:100A700018E0FDFF3395E0FEEF64014E7031900009
:100A8000151204C0120368FF120B5E9000151204C9
:100A9000C0900001120381FF7D01120B5E900015D2
:100AA0001204C0900001120381FFE4FD120B5E905E
:100AB0000019E0FF2290001AEFF0A3EDF0A3EBF095
:100AC000E4F9FBEBC3940874809480504B90001BB6
:100AD000E0FF7D01120B5EA3E06401701690001A26
:100AE000E0FF120B9FA803EF088002C333D8FC4934
:100AF000F9801890001AE0FF120B9FC374079BFE49
:100B0000F8EF088002C333D8FC49F990001BE0FFDE
:100B1000E4FD120B5E0B80ABAF012290001B1204B0
:100B2000C990001B1204C0900001120381FFE4FD74
:100B3000120B5E90001B1204C0900001120381FF93
:100B40007D01120B5E90001B1204C0900001120385
:100B500081FFE4FD120B5E7F647E00020D9BEF546B
:100B600007FEF87401088002C333D8FCFEEF1313AC
:100B700013541FFF700CED6004EE428022EEF4521D
:100B80008022EF6401700CED6004EE429022EEF4DE
:100B9000529022ED6004EE42A022EEF452A022EF29
:100BA0005407FEF87401088002C333D8FCFEEF132B
:100BB0001313541FFD7C00700AE5805E7F00601CEB
:100BC0007F0122ED64014C700AE5905E7F00600CAD
:100BD0007F0122E5A05E7F0060027F01229000136A
:100BE0001204C99000131204C0E92407F9E43AFA88
:100BF00012036844041203AE9000131204C0900064
:100C0000071203814408FDE490001AF090001312CB
:100C100004C0020515ED1203AE900014E09000012F
:100C20001203C0900015E09000021203C09000165D
:100C3000E09000031203C0900017E090000412033C
:100C4000C0900018E09000050203C090001012044C
:100C5000C99000131204C0120368FD601B90001AB3
:100C60007401F09000101204C0120515900014E4F5
:100C700075F0011203E280D9229000101204C9908D
:100C80000013EDF0A3E0900010600B1204C0900080
:100C900013E0244080071204C0900013E044801247
:100CA000050F229000101204C99000101204C09089
:100CB0000014E090001AF0120D66900015E0FF900D
:100CC00000101204C0900005EF0203C0900003E47E
:100CD00075F0011204309000031203F8FFAEF0E447
:100CE000FCFD7BFF7AFFF9F8C31204AA7F007002B3
:100CF0007F01229000101204C99000101204C0124B
:100D00000368FF7D01120B5E9000101204C090007A
:100D100001120381FF7D01020B5EEFB40A07740D1F
:100D2000120D25740A309811A899B8130CC2983086
:100D300098FDA899C298B811F63099FDC299F59915
:100D400022602000380000000000000000000000C9
:100D50000000000000000000000000000000000093
:100D6000000000000000ED1203AE90001AE09000B9
:100D7000011203C0900002E40203C0E490001AF0E4
:100D80007D011205157FD07E07020D9BAF05EF2573
:100D9000E0FF900019E04FFD0209E1EF4E6007EF20
:100DA0001F70F81E80F522900003E4F5F002047D28
:100DB0000209E1020A4E020CF3496E743A256400FE
:00000001FF
