:10000000020409900012EDF090000FEBF0A3EAF06B
:10001000A3E9F01201DFFF900013E0FD1202C69089
:10002000000FE0FBA3E0FAA3E0F99000021201F850
:10003000FF900012E0FEC45401FD1202C690000FB2
:10004000E0FBA3E0FAA3E0F99000031201F8FF90AF
:100050000012E0C4540FFEC3135401FD1202C690F7
:10006000000FE0FBA3E0FAA3E0F99000041201F80E
:10007000FF900012E0C4540FFE13135401FD12024E
:10008000C690000FE0FBA3E0FAA3E0F99000051290
:1000900001F8FF900012E0C4540FFE131313540133
:1000A000FD1202C690000FE0FBA3E0FAA3E0F912F4
:1000B000026F90000FE0FBA3E0FAA3E0F9900002CA
:1000C0001201F8FF900012E05401FD1202C69000E8
:1000D0000FE0FBA3E0FAA3E0F99000031201F8FFA0
:1000E000900012E0FEC3135401FD1202C690000FEF
:1000F000E0FBA3E0FAA3E0F99000041201F8FF90FE
:100100000012E0FE13135401FD1202C690000FE02E
:10011000FBA3E0FAA3E0F99000051201F8FF9000BC
:1001200012E0FE1313135401FD1202C690000FE0FB
:10013000FBA3E0FAA3E0F902026F900009EBF0A341
:10014000EAF0A3E9F0900009E0FBA3E0FAA3E0F9EC
:100150009000067408120237C003C002C00190006C
:1001600009E0FBA3E0FAA3E0F99000061201F844CD
:1001700020FDE4900013F0D001D002D00312000360
:10018000900009E0FBA3E0FAA3E0F99000077404F3
:10019000120237120346900009E0FBA3E0FAA3E045
:1001A000F91203F8900009E0FBA3E0FAA3E0F9904C
:1001B00000087402120237C003C002C00190000997
:1001C000E0FBA3E0FAA3E0F99000081201F8440470
:1001D000FDE4900013F0D001D002D003020003BB75
:1001E000010689828A83E0225002E722BBFE02E3F5
:1001F0002289828A83E49322BB010CE58229F5825D
:10020000E5833AF583E0225006E92582F8E622BB31
:10021000FE06E92582F8E222E58229F582E5833AA5
:10022000F583E49322BB010689828A83F02250027F
:10023000F722BBFE01F322F8BB010DE58229F5820E
:10024000E5833AF583E8F0225006E92582C8F622D4
:10025000BBFE05E92582C8F222C5F0F8A3E028F02C
:10026000C5F0F8E582158270021583E038F022901F
:100270000014EBF0A3EAF0A3E9F0900014E0FBA374
:10028000E0FAA3E0F99000011201F8FFE4FD120288
:10029000C6900014E0FBA3E0FAA3E0F9900001127D
:1002A00001F8FF7D011202C6900014E0FBA3E0FA02
:1002B000A3E0F99000011201F8FFE4FD1202C67FED
:1002C000647E00020415EF5407FEF87401088002F2
:1002D000C333D8FCFEEF131313541FFF700CED60F3
:1002E00004EE428022EEF4528022EF6401700CEDA5
:1002F0006004EE429022EEF4529022ED6004EE4251
:10030000A022EEF452A0227B017A00790090000D29
:100310007414F0A314F0A314F0A314F0A314F07D4C
:10032000151203C27B017A00790012013A90000C89
:1003300074FFF0A37404F0A37421F07B017A0079B8
:100340000012038580FE90000CEBF0A3EAF0A3E915
:10035000F090000CE0FBA3E0FAA3E02407F9E43AF4
:10036000FA1201DF440412022590000CE0FBA3E026
:10037000FAA3E0F99000071201F84408FDE49000A8
:1003800013F0020003900009EBF0A3EAF0A3E9F0F8
:1003900090000CE0FBA3E0FAA3E0F91201DFFD609E
:1003A000209000137401F0900009E0FBA3E0FAA391
:1003B000E0F912000390000DE475F001120259807B
:1003C000CF22ED12022590000DE0900001120237BD
:1003D00090000EE090000212023790000FE09000B3
:1003E00003120237900010E09000041202379000D0
:1003F00011E0900005020237E4900013F07D011235
:1004000000037FD07E07020415787FE4F6D8FD75DF
:100410008107020307EF4E6007EF1F70F81E80F59B
:0E0420002248656C6C6F2C20576F726C640064
:00000001FF
